{
  "contractName": "Voting",
  "abi": [
    {
      "inputs": [],
      "stateMutability": "nonpayable",
      "type": "constructor"
    },
    {
      "inputs": [],
      "name": "admin",
      "outputs": [
        {
          "internalType": "address",
          "name": "",
          "type": "address"
        }
      ],
      "stateMutability": "view",
      "type": "function",
      "constant": true
    },
    {
      "inputs": [
        {
          "internalType": "uint256",
          "name": "",
          "type": "uint256"
        }
      ],
      "name": "candidates",
      "outputs": [
        {
          "internalType": "uint256",
          "name": "id",
          "type": "uint256"
        },
        {
          "internalType": "string",
          "name": "name",
          "type": "string"
        },
        {
          "internalType": "uint256",
          "name": "voteCount",
          "type": "uint256"
        }
      ],
      "stateMutability": "view",
      "type": "function",
      "constant": true
    },
    {
      "inputs": [],
      "name": "candidatesCount",
      "outputs": [
        {
          "internalType": "uint256",
          "name": "",
          "type": "uint256"
        }
      ],
      "stateMutability": "view",
      "type": "function",
      "constant": true
    },
    {
      "inputs": [
        {
          "internalType": "address",
          "name": "",
          "type": "address"
        }
      ],
      "name": "voters",
      "outputs": [
        {
          "internalType": "bool",
          "name": "",
          "type": "bool"
        }
      ],
      "stateMutability": "view",
      "type": "function",
      "constant": true
    },
    {
      "inputs": [
        {
          "internalType": "string",
          "name": "_name",
          "type": "string"
        }
      ],
      "name": "addCandidate",
      "outputs": [],
      "stateMutability": "nonpayable",
      "type": "function"
    },
    {
      "inputs": [
        {
          "internalType": "uint256",
          "name": "_candidateId",
          "type": "uint256"
        }
      ],
      "name": "vote",
      "outputs": [],
      "stateMutability": "nonpayable",
      "type": "function"
    },
    {
      "inputs": [
        {
          "internalType": "uint256",
          "name": "_candidateId",
          "type": "uint256"
        }
      ],
      "name": "getVoteCount",
      "outputs": [
        {
          "internalType": "uint256",
          "name": "",
          "type": "uint256"
        }
      ],
      "stateMutability": "view",
      "type": "function",
      "constant": true
    },
    {
      "inputs": [],
      "name": "getCandidatesCount",
      "outputs": [
        {
          "internalType": "uint256",
          "name": "",
          "type": "uint256"
        }
      ],
      "stateMutability": "view",
      "type": "function",
      "constant": true
    }
  ],
  "bytecode": "0x608060405234801561001057600080fd5b5033600360006101000a81548173ffffffffffffffffffffffffffffffffffffffff021916908373ffffffffffffffffffffffffffffffffffffffff160217905550610bd3806100616000396000f3fe608060405234801561001057600080fd5b50600436106100885760003560e01c8063a3ec138d1161005b578063a3ec138d14610115578063b2c2f2e814610145578063bb9aa28f14610175578063f851a4401461019357610088565b80630121b93f1461008d5780632d35a8a2146100a95780633477ee2e146100c7578063462e91ec146100f9575b600080fd5b6100a760048036038101906100a291906106eb565b6101b1565b005b6100b1610314565b6040516100be91906108f6565b60405180910390f35b6100e160048036038101906100dc91906106eb565b61031a565b6040516100f093929190610911565b60405180910390f35b610113600480360381019061010e91906106aa565b6103cc565b005b61012f600480360381019061012a9190610681565b6104dd565b60405161013c919061087b565b60405180910390f35b61015f600480360381019061015a91906106eb565b6104fd565b60405161016c91906108f6565b60405180910390f35b61017d61051c565b60405161018a91906108f6565b60405180910390f35b61019b610526565b6040516101a89190610860565b60405180910390f35b600160003373ffffffffffffffffffffffffffffffffffffffff1673ffffffffffffffffffffffffffffffffffffffff16815260200190815260200160002060009054906101000a900460ff161561023e576040517f08c379a000000000000000000000000000000000000000000000000000000000815260040161023590610896565b60405180910390fd5b60008111801561025057506002548111155b61028f576040517f08c379a0000000000000000000000000000000000000000000000000000000008152600401610286906108b6565b60405180910390fd5b60018060003373ffffffffffffffffffffffffffffffffffffffff1673ffffffffffffffffffffffffffffffffffffffff16815260200190815260200160002060006101000a81548160ff021916908315150217905550600080828152602001908152602001600020600201600081548092919061030c90610a88565b919050555050565b60025481565b600060205280600052604060002060009150905080600001549080600101805461034390610a56565b80601f016020809104026020016040519081016040528092919081815260200182805461036f90610a56565b80156103bc5780601f10610391576101008083540402835291602001916103bc565b820191906000526020600020905b81548152906001019060200180831161039f57829003601f168201915b5050505050908060020154905083565b600360009054906101000a900473ffffffffffffffffffffffffffffffffffffffff1673ffffffffffffffffffffffffffffffffffffffff163373ffffffffffffffffffffffffffffffffffffffff161461045c576040517f08c379a0000000000000000000000000000000000000000000000000000000008152600401610453906108d6565b60405180910390fd5b6002600081548092919061046f90610a88565b919050555060405180606001604052806002548152602001828152602001600081525060008060025481526020019081526020016000206000820151816000015560208201518160010190805190602001906104cc92919061054c565b506040820151816002015590505050565b60016020528060005260406000206000915054906101000a900460ff1681565b6000806000838152602001908152602001600020600201549050919050565b6000600254905090565b600360009054906101000a900473ffffffffffffffffffffffffffffffffffffffff1681565b82805461055890610a56565b90600052602060002090601f01602090048101928261057a57600085556105c1565b82601f1061059357805160ff19168380011785556105c1565b828001600101855582156105c1579182015b828111156105c05782518255916020019190600101906105a5565b5b5090506105ce91906105d2565b5090565b5b808211156105eb5760008160009055506001016105d3565b5090565b60006106026105fd84610980565b61094f565b90508281526020810184848401111561061a57600080fd5b610625848285610a14565b509392505050565b60008135905061063c81610b6f565b92915050565b600082601f83011261065357600080fd5b81356106638482602086016105ef565b91505092915050565b60008135905061067b81610b86565b92915050565b60006020828403121561069357600080fd5b60006106a18482850161062d565b91505092915050565b6000602082840312156106bc57600080fd5b600082013567ffffffffffffffff8111156106d657600080fd5b6106e284828501610642565b91505092915050565b6000602082840312156106fd57600080fd5b600061070b8482850161066c565b91505092915050565b61071d816109cc565b82525050565b61072c816109de565b82525050565b600061073d826109b0565b61074781856109bb565b9350610757818560208601610a23565b61076081610b5e565b840191505092915050565b60006107786017836109bb565b91507f596f75206861766520616c726561647920766f746564210000000000000000006000830152602082019050919050565b60006107b86014836109bb565b91507f496e76616c69642063616e6469646174652049440000000000000000000000006000830152602082019050919050565b60006107f86021836109bb565b91507f4f6e6c792061646d696e2063616e2063616c6c20746869732066756e6374696f60008301527f6e000000000000000000000000000000000000000000000000000000000000006020830152604082019050919050565b61085a81610a0a565b82525050565b60006020820190506108756000830184610714565b92915050565b60006020820190506108906000830184610723565b92915050565b600060208201905081810360008301526108af8161076b565b9050919050565b600060208201905081810360008301526108cf816107ab565b9050919050565b600060208201905081810360008301526108ef816107eb565b9050919050565b600060208201905061090b6000830184610851565b92915050565b60006060820190506109266000830186610851565b81810360208301526109388185610732565b90506109476040830184610851565b949350505050565b6000604051905081810181811067ffffffffffffffff8211171561097657610975610b2f565b5b8060405250919050565b600067ffffffffffffffff82111561099b5761099a610b2f565b5b601f19601f8301169050602081019050919050565b600081519050919050565b600082825260208201905092915050565b60006109d7826109ea565b9050919050565b60008115159050919050565b600073ffffffffffffffffffffffffffffffffffffffff82169050919050565b6000819050919050565b82818337600083830152505050565b60005b83811015610a41578082015181840152602081019050610a26565b83811115610a50576000848401525b50505050565b60006002820490506001821680610a6e57607f821691505b60208210811415610a8257610a81610b00565b5b50919050565b6000610a9382610a0a565b91507fffffffffffffffffffffffffffffffffffffffffffffffffffffffffffffffff821415610ac657610ac5610ad1565b5b600182019050919050565b7f4e487b7100000000000000000000000000000000000000000000000000000000600052601160045260246000fd5b7f4e487b7100000000000000000000000000000000000000000000000000000000600052602260045260246000fd5b7f4e487b7100000000000000000000000000000000000000000000000000000000600052604160045260246000fd5b6000601f19601f8301169050919050565b610b78816109cc565b8114610b8357600080fd5b50565b610b8f81610a0a565b8114610b9a57600080fd5b5056fea26469706673582212205ba0d40521809163d677db5ee6d5d36d88e48dedd07b8ed6268f08bc67aa8bf164736f6c63430008000033",
  "immutableReferences": {},
  "source": "// SPDX-License-Identifier: MIT\r\npragma solidity ^0.8.0;\r\n\r\ncontract Voting {\r\n\r\n    struct Candidate {\r\n        uint id;\r\n        string name;\r\n        uint voteCount;\r\n    }\r\n\r\n    mapping(uint => Candidate) public candidates;\r\n    mapping(address => bool) public voters;\r\n    uint public candidatesCount;\r\n    address public admin;\r\n\r\n    modifier onlyAdmin() {\r\n        require(msg.sender == admin, \"Only admin can call this function\");\r\n        _;\r\n    }\r\n\r\n    constructor() {\r\n        admin = msg.sender;\r\n    }\r\n\r\n    function addCandidate(string memory _name) public onlyAdmin {\r\n        candidatesCount++;\r\n        candidates[candidatesCount] = Candidate(candidatesCount, _name, 0);\r\n    }\r\n\r\n    function vote(uint _candidateId) public {\r\n        require(!voters[msg.sender], \"You have already voted!\");\r\n        require(_candidateId > 0 && _candidateId <= candidatesCount, \"Invalid candidate ID\");\r\n\r\n        voters[msg.sender] = true;\r\n        candidates[_candidateId].voteCount++;\r\n    }\r\n\r\n    function getVoteCount(uint _candidateId) public view returns (uint) {\r\n        return candidates[_candidateId].voteCount;\r\n    }\r\n\r\n    function getCandidatesCount() public view returns (uint) {\r\n        return candidatesCount;\r\n    }\r\n}\r\n",
  "sourcePath": "D:\\project\\blockchain\\contracts\\Voting.sol",
  "compiler": {
    "name": "solc",
    "version": "0.8.0+commit.c7dfd78e.Emscripten.clang"
  },
  "schemaVersion": "3.4.16",
  "updatedAt": "2025-01-16T06:03:38.814Z",
  "networkType": "ethereum",
  "devdoc": {
    "kind": "dev",
    "methods": {},
    "version": 1
  },
  "userdoc": {
    "kind": "user",
    "methods": {},
    "version": 1
  }
}