{
  "contractName": "Voting",
  "abi": [
    {
      "inputs": [],
      "stateMutability": "nonpayable",
      "type": "constructor"
    },
    {
      "anonymous": false,
      "inputs": [
        {
          "indexed": false,
          "internalType": "uint256",
          "name": "candidateId",
          "type": "uint256"
        },
        {
          "indexed": false,
          "internalType": "string",
          "name": "name",
          "type": "string"
        }
      ],
      "name": "CandidateAdded",
      "type": "event"
    },
    {
      "anonymous": false,
      "inputs": [
        {
          "indexed": true,
          "internalType": "address",
          "name": "voter",
          "type": "address"
        },
        {
          "indexed": false,
          "internalType": "uint256",
          "name": "candidateId",
          "type": "uint256"
        }
      ],
      "name": "Voted",
      "type": "event"
    },
    {
      "inputs": [],
      "name": "admin",
      "outputs": [
        {
          "internalType": "address",
          "name": "",
          "type": "address"
        }
      ],
      "stateMutability": "view",
      "type": "function",
      "constant": true
    },
    {
      "inputs": [
        {
          "internalType": "uint256",
          "name": "",
          "type": "uint256"
        }
      ],
      "name": "candidates",
      "outputs": [
        {
          "internalType": "uint256",
          "name": "id",
          "type": "uint256"
        },
        {
          "internalType": "string",
          "name": "name",
          "type": "string"
        },
        {
          "internalType": "uint256",
          "name": "voteCount",
          "type": "uint256"
        }
      ],
      "stateMutability": "view",
      "type": "function",
      "constant": true
    },
    {
      "inputs": [],
      "name": "candidatesCount",
      "outputs": [
        {
          "internalType": "uint256",
          "name": "",
          "type": "uint256"
        }
      ],
      "stateMutability": "view",
      "type": "function",
      "constant": true
    },
    {
      "inputs": [
        {
          "internalType": "address",
          "name": "",
          "type": "address"
        }
      ],
      "name": "voters",
      "outputs": [
        {
          "internalType": "bool",
          "name": "",
          "type": "bool"
        }
      ],
      "stateMutability": "view",
      "type": "function",
      "constant": true
    },
    {
      "inputs": [
        {
          "internalType": "string",
          "name": "_name",
          "type": "string"
        }
      ],
      "name": "addCandidate",
      "outputs": [],
      "stateMutability": "nonpayable",
      "type": "function"
    },
    {
      "inputs": [
        {
          "internalType": "uint256",
          "name": "_candidateId",
          "type": "uint256"
        }
      ],
      "name": "vote",
      "outputs": [],
      "stateMutability": "nonpayable",
      "type": "function"
    },
    {
      "inputs": [
        {
          "internalType": "uint256",
          "name": "_candidateId",
          "type": "uint256"
        }
      ],
      "name": "getVoteCount",
      "outputs": [
        {
          "internalType": "uint256",
          "name": "",
          "type": "uint256"
        }
      ],
      "stateMutability": "view",
      "type": "function",
      "constant": true
    },
    {
      "inputs": [],
      "name": "getCandidatesCount",
      "outputs": [
        {
          "internalType": "uint256",
          "name": "",
          "type": "uint256"
        }
      ],
      "stateMutability": "view",
      "type": "function",
      "constant": true
    },
    {
      "inputs": [
        {
          "internalType": "address",
          "name": "_voter",
          "type": "address"
        }
      ],
      "name": "hasVoted",
      "outputs": [
        {
          "internalType": "bool",
          "name": "",
          "type": "bool"
        }
      ],
      "stateMutability": "view",
      "type": "function",
      "constant": true
    }
  ],
  "bytecode": "0x608060405234801561001057600080fd5b5033600360006101000a81548173ffffffffffffffffffffffffffffffffffffffff021916908373ffffffffffffffffffffffffffffffffffffffff160217905550610e19806100616000396000f3fe608060405234801561001057600080fd5b50600436106100935760003560e01c8063462e91ec11610066578063462e91ec14610134578063a3ec138d14610150578063b2c2f2e814610180578063bb9aa28f146101b0578063f851a440146101ce57610093565b80630121b93f1461009857806309eef43e146100b45780632d35a8a2146100e45780633477ee2e14610102575b600080fd5b6100b260048036038101906100ad91906108a1565b6101ec565b005b6100ce60048036038101906100c99190610837565b6103e9565b6040516100db9190610a71565b60405180910390f35b6100ec61043f565b6040516100f99190610b0c565b60405180910390f35b61011c600480360381019061011791906108a1565b610445565b60405161012b93929190610b57565b60405180910390f35b61014e60048036038101906101499190610860565b6104f7565b005b61016a60048036038101906101659190610837565b610643565b6040516101779190610a71565b60405180910390f35b61019a600480360381019061019591906108a1565b610663565b6040516101a79190610b0c565b60405180910390f35b6101b86106d2565b6040516101c59190610b0c565b60405180910390f35b6101d66106dc565b6040516101e39190610a56565b60405180910390f35b6000801561022f576040517f08c379a000000000000000000000000000000000000000000000000000000000815260040161022690610a8c565b60405180910390fd5b60019050600160003373ffffffffffffffffffffffffffffffffffffffff1673ffffffffffffffffffffffffffffffffffffffff16815260200190815260200160002060009054906101000a900460ff16156102c0576040517f08c379a00000000000000000000000000000000000000000000000000000000081526004016102b790610aac565b60405180910390fd5b6000821180156102d257506002548211155b610311576040517f08c379a000000000000000000000000000000000000000000000000000000000815260040161030890610acc565b60405180910390fd5b60018060003373ffffffffffffffffffffffffffffffffffffffff1673ffffffffffffffffffffffffffffffffffffffff16815260200190815260200160002060006101000a81548160ff021916908315150217905550600080838152602001908152602001600020600201600081548092919061038e90610cce565b91905055503373ffffffffffffffffffffffffffffffffffffffff167f4d99b957a2bc29a30ebd96a7be8e68fe50a3c701db28a91436490b7d53870ca4836040516103d99190610b0c565b60405180910390a2600090505050565b6000600160008373ffffffffffffffffffffffffffffffffffffffff1673ffffffffffffffffffffffffffffffffffffffff16815260200190815260200160002060009054906101000a900460ff169050919050565b60025481565b600060205280600052604060002060009150905080600001549080600101805461046e90610c9c565b80601f016020809104026020016040519081016040528092919081815260200182805461049a90610c9c565b80156104e75780601f106104bc576101008083540402835291602001916104e7565b820191906000526020600020905b8154815290600101906020018083116104ca57829003601f168201915b5050505050908060020154905083565b600360009054906101000a900473ffffffffffffffffffffffffffffffffffffffff1673ffffffffffffffffffffffffffffffffffffffff163373ffffffffffffffffffffffffffffffffffffffff1614610587576040517f08c379a000000000000000000000000000000000000000000000000000000000815260040161057e90610aec565b60405180910390fd5b6002600081548092919061059a90610cce565b919050555060405180606001604052806002548152602001828152602001600081525060008060025481526020019081526020016000206000820151816000015560208201518160010190805190602001906105f7929190610702565b50604082015181600201559050507fe83b2a43e7e82d975c8a0a6d2f045153c869e111136a34d1889ab7b598e396a360025482604051610638929190610b27565b60405180910390a150565b60016020528060005260406000206000915054906101000a900460ff1681565b6000808211801561067657506002548211155b6106b5576040517f08c379a00000000000000000000000000000000000000000000000000000000081526004016106ac90610acc565b60405180910390fd5b600080838152602001908152602001600020600201549050919050565b6000600254905090565b600360009054906101000a900473ffffffffffffffffffffffffffffffffffffffff1681565b82805461070e90610c9c565b90600052602060002090601f0160209004810192826107305760008555610777565b82601f1061074957805160ff1916838001178555610777565b82800160010185558215610777579182015b8281111561077657825182559160200191906001019061075b565b5b5090506107849190610788565b5090565b5b808211156107a1576000816000905550600101610789565b5090565b60006107b86107b384610bc6565b610b95565b9050828152602081018484840111156107d057600080fd5b6107db848285610c5a565b509392505050565b6000813590506107f281610db5565b92915050565b600082601f83011261080957600080fd5b81356108198482602086016107a5565b91505092915050565b60008135905061083181610dcc565b92915050565b60006020828403121561084957600080fd5b6000610857848285016107e3565b91505092915050565b60006020828403121561087257600080fd5b600082013567ffffffffffffffff81111561088c57600080fd5b610898848285016107f8565b91505092915050565b6000602082840312156108b357600080fd5b60006108c184828501610822565b91505092915050565b6108d381610c12565b82525050565b6108e281610c24565b82525050565b60006108f382610bf6565b6108fd8185610c01565b935061090d818560208601610c69565b61091681610da4565b840191505092915050565b600061092e601b83610c01565b91507f5265656e7472616e63792061747461636b2064657465637465642100000000006000830152602082019050919050565b600061096e601783610c01565b91507f596f75206861766520616c726561647920766f746564210000000000000000006000830152602082019050919050565b60006109ae601483610c01565b91507f496e76616c69642063616e6469646174652049440000000000000000000000006000830152602082019050919050565b60006109ee602183610c01565b91507f4f6e6c792061646d696e2063616e2063616c6c20746869732066756e6374696f60008301527f6e000000000000000000000000000000000000000000000000000000000000006020830152604082019050919050565b610a5081610c50565b82525050565b6000602082019050610a6b60008301846108ca565b92915050565b6000602082019050610a8660008301846108d9565b92915050565b60006020820190508181036000830152610aa581610921565b9050919050565b60006020820190508181036000830152610ac581610961565b9050919050565b60006020820190508181036000830152610ae5816109a1565b9050919050565b60006020820190508181036000830152610b05816109e1565b9050919050565b6000602082019050610b216000830184610a47565b92915050565b6000604082019050610b3c6000830185610a47565b8181036020830152610b4e81846108e8565b90509392505050565b6000606082019050610b6c6000830186610a47565b8181036020830152610b7e81856108e8565b9050610b8d6040830184610a47565b949350505050565b6000604051905081810181811067ffffffffffffffff82111715610bbc57610bbb610d75565b5b8060405250919050565b600067ffffffffffffffff821115610be157610be0610d75565b5b601f19601f8301169050602081019050919050565b600081519050919050565b600082825260208201905092915050565b6000610c1d82610c30565b9050919050565b60008115159050919050565b600073ffffffffffffffffffffffffffffffffffffffff82169050919050565b6000819050919050565b82818337600083830152505050565b60005b83811015610c87578082015181840152602081019050610c6c565b83811115610c96576000848401525b50505050565b60006002820490506001821680610cb457607f821691505b60208210811415610cc857610cc7610d46565b5b50919050565b6000610cd982610c50565b91507fffffffffffffffffffffffffffffffffffffffffffffffffffffffffffffffff821415610d0c57610d0b610d17565b5b600182019050919050565b7f4e487b7100000000000000000000000000000000000000000000000000000000600052601160045260246000fd5b7f4e487b7100000000000000000000000000000000000000000000000000000000600052602260045260246000fd5b7f4e487b7100000000000000000000000000000000000000000000000000000000600052604160045260246000fd5b6000601f19601f8301169050919050565b610dbe81610c12565b8114610dc957600080fd5b50565b610dd581610c50565b8114610de057600080fd5b5056fea2646970667358221220a0184a00c280c4edefa4b4fb78b85fa0b9a42af57f4ff38095236b878e2e170d64736f6c63430008000033",
  "immutableReferences": {},
  "source": "// SPDX-License-Identifier: MIT\r\npragma solidity ^0.8.0;\r\n\r\ncontract Voting {\r\n\r\n    struct Candidate {\r\n        uint id;\r\n        string name;\r\n        uint voteCount;\r\n    }\r\n\r\n    mapping(uint => Candidate) public candidates;\r\n    mapping(address => bool) public voters;\r\n    uint public candidatesCount;\r\n    address public admin;\r\n\r\n    // Declare events\r\n    event CandidateAdded(uint candidateId, string name);\r\n    event Voted(address indexed voter, uint candidateId);\r\n\r\n    // Modifier to allow only admin to call certain functions\r\n    modifier onlyAdmin() {\r\n        require(msg.sender == admin, \"Only admin can call this function\");\r\n        _;\r\n    }\r\n\r\n    // Modifier to prevent reentrancy attacks on vote function\r\n    modifier nonReentrant() {\r\n        bool _status = false;\r\n        require(!_status, \"Reentrancy attack detected!\");\r\n        _status = true;\r\n        _;\r\n        _status = false;\r\n    }\r\n\r\n    constructor() {\r\n        admin = msg.sender;\r\n    }\r\n\r\n    // Function to add a candidate (only accessible by admin)\r\n    function addCandidate(string memory _name) public onlyAdmin {\r\n        candidatesCount++;\r\n        candidates[candidatesCount] = Candidate(candidatesCount, _name, 0);\r\n        emit CandidateAdded(candidatesCount, _name);\r\n    }\r\n\r\n    // Function for users to vote for a candidate\r\n    function vote(uint _candidateId) public nonReentrant {\r\n        require(!voters[msg.sender], \"You have already voted!\");\r\n        require(_candidateId > 0 && _candidateId <= candidatesCount, \"Invalid candidate ID\");\r\n\r\n        voters[msg.sender] = true;\r\n        candidates[_candidateId].voteCount++;\r\n\r\n        emit Voted(msg.sender, _candidateId);\r\n    }\r\n\r\n    // Function to get vote count of a specific candidate\r\n    function getVoteCount(uint _candidateId) public view returns (uint) {\r\n        require(_candidateId > 0 && _candidateId <= candidatesCount, \"Invalid candidate ID\");\r\n        return candidates[_candidateId].voteCount;\r\n    }\r\n\r\n    // Function to get total number of candidates\r\n    function getCandidatesCount() public view returns (uint) {\r\n        return candidatesCount;\r\n    }\r\n\r\n    // Function to check if an address has voted\r\n    function hasVoted(address _voter) public view returns (bool) {\r\n        return voters[_voter];\r\n    }\r\n}\r\n",
  "sourcePath": "D:\\project\\blockchain\\contracts\\Voting.sol",
  "compiler": {
    "name": "solc",
    "version": "0.8.0+commit.c7dfd78e.Emscripten.clang"
  },
  "schemaVersion": "3.4.16",
  "updatedAt": "2025-01-16T09:47:32.689Z",
  "networkType": "ethereum",
  "devdoc": {
    "kind": "dev",
    "methods": {},
    "version": 1
  },
  "userdoc": {
    "kind": "user",
    "methods": {},
    "version": 1
  }
}